:100AD5000D22C0F9A4B0999282F88090FFBF7F08DB
:100AE500370102040810204080082FFFFFFFFFFF99
:060AF500FFFFFF012100DC
:100B9D0074372521F8E6F580E5A0541F44C0F5A073
:100BAD0053A01F742F2521F8E6F580E5A0541F44AE
:100BBD00E0F5A053A01FE5A0541F44E0F5A053A0FD
:0B0BCD001F0521E521B40803E4F52119
:010BD80022FA
:0D0E8F0074222DF8E6FE742F2FF8A606221F
:090EA700742F2FF8E6547FF622A7
:100AFB00C102C103C100C104C101C185030E0205BE
:060B0B00000311010000CF
:040CBB008E1A8F1BE3
:100CBF00D3E51B9400E51A94004024E4F51C7FC88B
:100CCF00120003B2B3051CE51CC394C840F0C2B3B5
:0F0CDF007F64120E06E51B151B70D5151A80D108
:010CEE0022E3
:100E4200758901758CD8758AF0D2A9D28CD2AF225D
:03000B000207F6F3
:1007F600C0E0C0F0C083C082C0D075D000C000C0C9
:0D08060001C002C003C004C005C006C00749
:10081300758CD8758AF00508E508B4011B750800C6
:100823007F06120C147580007F07120C14120B9DA7
:10083300758000E4FF120C140509E509B4C80775B7
:060843000900D202C28C84
:10084900D007D006D005D004D003D002D001D00003
:0B085900D0D0D082D083D0F0D0E032AD
:100C4D00C28E120D1C7FCC120D687F44120D68D21E
:100C5D008EC28E120D1C7FCC120D687FBE120D68D8
:100C6D00120DBE8F1C120DBE8F1D120D1CD28EAF1C
:060C7D001DEFFEE51CFF67
:010C8300224E
:1003F400120C4D8E148F15E51454F8706BAC14ADBB
:100404001512028AE4FBFA7980783D1201068F19ED
:100414008E188D178C161202C38F1AE51A75F00AFE
:10042400120344FDC36480948140057F03120E8F40
:10043400E51A75F00A120344ADF07F04120E8FAC76
:100444001AEC12028FA804A905AA06AB07AF19AECD
:1004540018AD17AC16120011E4FBFA79207841129A
:1004640001061202C38F1B22E515F4FFE514F4FE06
:10047400EF2401FDE43EFCE412028AE4FBFA7980F5
:10048400783D1201068F198E188D178C161202C32F
:100494008F1AE51A75F00A120344C3648094817DAF
:1004A4000B40107F04120E8FE51A75F00A120344F4
:1004B400FD80007F05120E8FE51A75F00A120344C1
:1004C400ADF07F06120E8FAC1AEC12028FA804A9AD
:1004D40005AA06AB07AF19AE18AD17AC161200117A
:1004E400E4FBFA792078411201061202C38F1BAD96
:0604F4001B7F07120E8FB2
:0104FA0022DF
:1004FB00120C4D8E3F8F40E53F54F8706BAC3FAD07
:10050B004012028AE4FBFA7980783D1201068F448F
:10051B008E438D428C411202C38F45E54575F00A1F
:10052B00120344FDC36480948140057F06120E8F35
:10053B00E54575F00A120344ADF07F07120E8FAC40
:10054B0045EC12028FA804A905AA06AB07AF44AE6F
:10055B0043AD42AC41120011E4FBFA792078411211
:10056B0001061202C38F4622E540F4FFE53FF4FE7D
:10057B00EF2401FDE43EFCE412028AE4FBFA7980ED
:10058B00783D1201068F448E438D428C411202C37B
:10059B008F45E54575F00A120344C3648094817D51
:1005AB000B40107F04120E8FE54575F00A120344C1
:1005BB00FD80007F05120E8FE54575F00A1203448E
:1005CB00ADF07F06120E8FAC45EC12028FA804A97A
:1005DB0005AA06AB07AF44AE43AD42AC41120011C6
:1005EB00E4FBFA792078411201061202C38F46AD63
:0605FB00467F07120E8F7F
:0106010022D6
:1009E900C2A9E4FF120CEFD2A9AC07E412028F7B73
:1009F900137A6F797E783B1201068F178E168D1543
:100A09008C14E4FFFE7DC87C42AB17AA16A915A871
:100A1900141201061202C38F18E51875F00A84FD35
:100A29007F06120E8FE51875F00A84ADF07F070274
:020A39000E8F1E
:0F0E62007F04120C14E4F5807580FEFF020C145F
:100C84007F06120C1412098DD28CE54B75F00A8480
:100C9400FDE4FF120E8FE54B75F00A84ADF07F0181
:100CA400120E8F7D0B7F02120E8F1203F47D0B7FC9
:070CB40005120E8F0209E991
:100A3B007F06120C14E54B75F00A84FDE4FF120ED1
:100A4B008FE54B75F00A84ADF07F01120E8F7D0B95
:100A5B007F02120E8F1203F47D0B7F05120E8F1285
:100A6B00098DD28CE54B75F00A84FDE4FF120E8FD5
:0D0A7B00E54B75F00A84ADF07F01020E8F8F
:1008CB007F06120C14D28CAE0AAF0B7C007D0A1281
:1008DB0003917C007D0A120391E4FF120E8FAE0A86
:1008EB00AF0B7C007D0A1203917F01120E8F7D0BE3
:1008FB007F02120E8FAE0CAF0D7C007D0A1203919E
:10090B007C007D0A1203917F03120E8FAE0CAF0D8C
:10091B007C007D0A1203917F04120E8F7D0B7F05E5
:06092B00120E8F0209E923
:100DD800EF7F056009120C147580FFE48006120C81
:090DE80014E4F580FF120C142242
:100DF1007F05120C147580FF7F04120C147580FF9F
:050E0100E4FF020C14E7
:100602002090417F05120E0620902020001DD2006E
:100612002090077F05120E0680F67F04120C1475D7
:1006220080FDE4FF120C14C2048019C2002090075E
:100632007F05120E0680F67F04120C147580FEE40C
:10064200FF120C142091367F05120E0620911130F4
:10065200000E2091077F05120E0680F6C204801D4F
:1006620020911A2000172091077F05120E0680F6AE
:10067200200406D204C2058004C204D205209236A8
:100682007F05120E062092163000132092077F0576
:10069200120E0680F6D2017F01120DD88018209228
:1006A200152000122092077F05120E0680F6050B18
:1006B200E50B7002050A2093347F05120E06209383
:1006C200143000112093077F05120E0680F6D20126
:1006D200E4FF020DD82093152000122093077F0516
:0E06E200120E0680F6E50D150D7002150C22A5
:10077C00120C4D8E148F15E51454F87006AC14AD94
:10078C00158010E515F4FFE514F4FEEF2401FDE4EB
:10079C003EFCE412028AE4FBFA7980783D120106F1
:1007AC008F198E188D178C16AC0AAD0BE412028AB9
:1007BC00AB19AA18A917A81612020C600A40083027
:1007CC000427300524801BAC0CAD0DE412028AAB5F
:1007DC0019AA18A917A81612020C500D30040A30C9
:0907EC0005077F037E00120CBB1F
:0107F50022E1
:10093100120E9C120E42120DF1120864750C007514
:100941000D0A750A00750B197B007A00790C751870
:10095100017F05120B1C7B007A00790C7518017F51
:1009610007120B1C7F0A120E063002132003051218
:100971000E62D203200405120C8480031208CB12EC
:0C098100060212077C7F0A120E0680DDC1
:03000300DFFE22FB
:100E0600AE07AF061EEF600C7FF51200037FF512EA
:050E1600000380EE2244
:0A0B11000847141408050000000353
:070B5E00120B65AD1B7F8A3D
:100B6500D2A45307FEE4FEEF30E004D2A28002C215
:100B7500A2D2A3C2A3EFC313FF0EBE08EAE4FEEDA3
:100B850030E004D2A28002C2A2D2A3C2A3EDC31355
:070B9500FD0EBE08EAC2A438
:010B9C002236
:100BD900D2A4430701E4FDEF30E004D2A28002C2AF
:100BE900A2D2A3C2A3EFC313FF0DBD08EAE4FDEE31
:100BF900C313FE30A205430680800353067FD2A3A8
:0A0C0900C2A30DBD08E9C2A4AF06A6
:010C130022BE
:10086400E4FF74472FF8E6FE75F00A84FDEE75F098
:100874000A8474142FF8A6F0EDC454F0FE74142FF7
:10088400F8EE26F60FBF08DAE4FD7F8E120B657DC5
:10089400807F80120B65AD157F8C120B65AD167FC2
:1008A40088120B65AD177F86120B5EAD187F84121C
:1008B4000B65AD197F82120B65AD1A7F80120B5E3A
:0708C4007D807F8E020B65B1
:10098D007F8C120BD98F157F88120BD98F167F860E
:10099D00120BD98F177F84120BD98F187F82120BF0
:1009AD00D98F197F80120BD9EF547FF51A7F8A12D8
:1009BD000BD98F1BE4FF74142FF8E6FEC4540FFD02
:1009CD00EE540FFE74472FF8A606ED75F00AA4FE3F
:0B09DD0074472FF8EE26F60FBF08DB72
:0109E80022EC
:0B0E9C00C2A4C2A3E4FD7F80020B652E
:040E71007F057E007B
:0B0E7500EF1FAC0670011E4C70F6224F
:100D1C00C206D2B77F0C7E00120E75C2B77F507E12
:100D2C0000120E75D2B77F0A7E00120E75A2B79212
:060D3C0006120E71A20672
:010D4200228E
:020D6800AD07D5
:100D6A00E4FBC2B7ED1392B7120E71D2B7EDC313FB
:0C0D7A00FD0BBB08ED7F057E00020E752E
:100DBE00E4FBC2B7EDC313FDD2B730B703430580D2
:090DCE00120E710BBB08EBAF051E
:010DD70022F9
:090E52007F05120E5BD2A17F05A1
:070E5B00AE071FEE70FA2242
:0F0E8000D2A0120E57C2A07F05120E5BC2A12294
:060E3000120D43120DAB90
:0C0E3600C2A0120E57D2A07F05020E5B76
:100E1B00EF6004C2A08002D2A0120E52C2A1D2A0D7
:050E2B007F05020E5BD3
:080DA300120E807FA0120D4327
:100DAB00D2A0120E5230A007C2A1120E36C322C21D
:030DBB00A1D3229F
:020D4300AD07FA
:100D4500E4FCED30E704D2A08002C2A07F05120EBC
:100D55005BD2A1ED25E0FD7F05120E5BC2A10CBCA7
:020D650008E0A4
:010D67002269
:100D8600E4FC120E57ED25E0FD30A003430501C239
:0C0D9600A17F05120E5B0CBC08E8AF0545
:010DA200222E
:020CEF00AB0751
:100CF100120E807F90120D43120DABAF03120E3016
:100D0100120E807F91120D43120DAB120D86AD07AD
:0A0D1100E4FF120E1B120E36AF05B0
:010D1B0022B5
:080B1C008F148B158A1689174E
:100B2400E4F519E519C39518502E120DA3AF14124C
:100B34000D43120DABAB15AA16A917120366FF12CB
:100B44000E307F01120E0674012517F517E43516D1
:090B5400F5160514051980CBD338
:010B5D002275
:020A88008F4F8E
:100A8A00120DA3AF4F120D43120DAB120E807FA1B0
:100A9A00120D43120DABE4F554E55314FFE554C3AC
:100AAA009F5017120D86EF12037F7F01120E1B74DF
:100ABA000129F9E43AFA055480DF120D86EF120390
:0A0ACA007FE4FF120E1B120E36D35C
:010AD40022FF
:100C1400EF603224FB601314601914601F24037006
:100C240027E5A0541F4480F5A022E5A0541F44A04A
:100C3400F5A022E5A0541F44C0F5A022E5A0541F4E
:090C440044E0F5A02253A01F2298
:10000E0002032FE86480F8E933E83360110460F0EE
:10001E00ED33EC337009E8FCE9FDEAFEEBFF220458
:10002E0060DED3EB9FEA9EE99DE8C2E78CF0C2F753
:10003E0095F0400CE8CCF8E9CDF9EACEFAEBCFFB1F
:10004E001202FA85D0F05804700320D5B3E804707C
:10005E00075002B2D502033992D5EC0460F7E4CC16
:10006E00C0E0C398F8603B94186008400DD0E0FBE8
:10007E00020311E4FBFAC9FC8028E830E406E4C967
:10008E00FBE4CAFCE830E305E4C9CACBFCE854073C
:10009E006010F8C3E913F9EA13FAEB13FBEC13FC47
:1000AE00D8F130F52FC3E49CFCEF9BFFEE9AFEEDEA
:1000BE0099FDD0E0FBEF4E4D4C701222DB03020394
:1000CE0036EC2CFCEF33FFEE33FEED33FDED30E777
:1000DE00EB020311EF2BFFEE3AFEED39FDD0E0FB04
:1000EE0050130BBB0003020339ED13FDEE13FEEFAD
:0800FE0013FFEC13FC020311D7
:10010600EC4D6011E8497017ED33EC3304600DE4F3
:10011600FCFFFEFD22E933E8330470F802032F12D8
:1001260002FA58046009E4CC2481500628500902DA
:100136000339284003020336C0E0EB4A7044B98015
:1001460006D0E0FB020325EF4E701CBD8008EBFFD6
:10015600EAFEE9FD80EBE98DF0A4FEE5F00201EF91
:10016600E9CDF9EAFEEBFFEF89F0A4FCE5F0CE89D4
:10017600F0A42EFFE435F0CD89F0A42DFEE435F091
:100186008067EF4E7005BD80D780C3EF8BF0A4ACBF
:10019600F0EE8BF0A42CFCE435F0F8EF8AF0A42CFA
:1001A600E5F038FCE433CB8DF0A42CFCE5F03BF80D
:1001B600EE8AF0A42CFCE5F038F8E433CF89F0A4FD
:1001C6002CFCE5F038CF3400CE89F0A42FFFE5F003
:1001D6003EFEE433C98DF0A42EFEE5F039CD8AF05B
:1001E600A42FFFE5F03EFEE43DFD33D0E0FB5007D3
:1001F6000BBB000F020339EC2CFCEF33FFEE33FE92
:06020600ED33FD020311BF
:10020C0074F8CC6480CCC86480C8F58204604FC399
:10021C00EB9FF5F0EA9E42F0E99D42F0E89C45F038
:10022C00603C501DE5825FFFE582D313CB5BCBF4C2
:10023C002B5582FB50280ABA002409B900200880EB
:10024C001DE5825BFBE582D313CF5FCFF4C3132F85
:10025C005582FF50090EBE00050DBD00010CC3EB0D
:10026C009FF5F0EA9E42F0E99D42F0E89C45F06073
:09027C0007CC4820E701B3EC2295
:1002850075F020800E75F010800575F0087D007EF4
:10029500007F003392D530D5031203E6EC334010CE
:1002A500EF33FFEE33FEED33FDEC33FCD5F0ED22FD
:0E02B500E5F0247EA2D513CC92E7CDCEFF2239
:1002C300EDD2E7CD33EC3392D524814006E4FFFE33
:1002D300FDFC22FCE4CFCECDCC24E0501174FF8092
:1002E300EDC3CC13CCCD13CDCE13CECF13CF04702F
:0702F300F030D5DE0203E646
:1002FA00E9D2E7C933E833F892D5EDD2E7CD33EC4A
:07030A0033FC5002B2D522C2
:10031100EC30E7100FBF000C0EBE00080DBD00044D
:100321000BEB6014A2D5EB13FCED92E7FD2274FFF9
:10033100FCFDFEFF22E480F8A2D574FF13FC7D8052
:03034100E480EF66
:030000000206F005
:0C06F000787FE4F6D8FD758154020737CE
:10034400C2D530F707B2D563F0FF05F030E70CB241
:10035400D5F4048463F0FF05F080018430D502F401
:02036400042271
:10036600BB010689828A83E0225002E722BBFE0295
:09037600E32289828A83E49322C8
:10037F00BB010689828A83F0225002F722BBFE015D
:02038F00F32257
:10039100BC000BBE0029EF8DF084FFADF022E4CC50
:1003A100F875F008EF2FFFEE33FEEC33FCEE9DEC19
:1003B100984005FCEE9DFE0FD5F0E9E4CEFD22ED5F
:1003C100F8F5F0EE8420D21CFEADF075F008EF2FA9
:1003D100FFED33FD4007985006D5F0F222C398FD9A
:0503E1000FD5F0EA2237
:0E03E600C3E49FFFE49EFEE49DFDE49CFC2228
:1006FC00020931E493A3F8E493A34003F68001F2DA
:10070C0008DFF48029E493A3F85407240CC8C333FE
:10071C00C4540F4420C8834004F456800146F6DFCD
:10072C00E4800B0102040810204080900AD5E47E7E
:10073C00019360BCA3FF543F30E509541FFEE493C2
:10074C00A360010ECF54C025E060A840B8E493A389
:10075C00FAE493A3F8E493A3C8C582C8CAC583CAB4
:10076C00F0A3C8C582C8CAC583CADFE9DEE780BE6C
:010B1B0000D9
:00000001FF
